:0C0000000C9450000C949F000C94D00055
:10000C000C9400000C9400000C9400000C94000064
:10001C000C9400000C9400000C9403010C94000050
:10002C000C9400000C9400000C9400000C94000044
:10003C000C9400000C9400000C9400000C94EF0045
:10004C000C9400000C9400001027E80364000A00D4
:10005C00010000100001100001000A000A0000005D
:10006C00000001002532643A2532643A2532643AA4
:10007C002530326400416C6972657A61000080C081
:10008C000A000400660008006001810002007C0187
:10009C008A000000F894EE27ECBBF1E0FBBFEBBF4D
:1000AC00E5BF8DE0A2E0BB27ED938A95E9F780E0F0
:1000BC0094E0A0E6ED930197E9F7ECE8F0E0859188
:1000CC009591009761F0A591B59105901590BF01A0
:1000DC00F00105900D920197E1F7FB01F0CFEFE5F0
:1000EC00EDBFE4E0EEBFC0E6D1E00C943A01E0E0F5
:1000FC00EA93A0E00E942B03E8E6F1E0FA93EA937E
:10010C00E0E7F0E0FA93EA93F2010E94C303F301F3
:10011C000E94C303F4010E94C303F5010E94C303B0
:10012C0080E10E94D7026496A8E6B1E00E946A03BF
:10013C0008950E94C80361F4F20131972F01EFEF8B
:10014C00FFEFE415F50519F4E7E1F0E02F0121C00C
:10015C00E2E0F0E0EC15FD0561F4F30131973F01AD
:10016C00EFEFFFEFE615F70519F4EBE3F0E03F01D5
:10017C0010C0E3E0F0E0EC15FD0559F4F401319703
:10018C004F01EFEFFFEFE815F90519F4EBE3F0E0A1
:10019C004F015BC00E94C80331F40E94DA0311F4D2
:1001AC004424552415C0E2E0F0E0EC15FD0531F4D3
:1001BC000E94E20311F4662477240AC0E3E0F0E025
:1001CC00EC15FD0529F40E94EA0311F48824992406
:1001DC003CC0EA93FA93EFB7EA93F60131966F01BC
:1001EC00E4E0F0E0EC15FD0519F4E1E0F0E06F015E
:1001FC00E991EFBFF991E99118950A921A92FA9246
:10020C006A937A938A939A93AA93BA93EA93FA93FA
:10021C00EFB7EA93E6E0E2BFF50131965F01EDE757
:10022C00F0E0EA15FB0589F4AA24BB240E94EA033A
:10023C0061F4882499240E94E20339F4662477241B
:10024C000E94DA0311F44424552451DFE991EFBFE5
:10025C00F991E991B991A9919991899179916991C2
:10026C00F990199009901895E0E0EABBEBBBE7BB5D
:10027C00E8BBE4BBE5BBE1BBE2BBE4E0E3BFE3E826
:10028C00E2BFE0E0ECBFE1E0E9BFEBB7E06EEBBF53
:10029C00E5E0E5BFE0E0E4BFE0EEEABFA0E10E94EC
:1002AC007B037894E0E0EA93A1E00E942B03A0E6A4
:1002BC00B1E00E946A03FFCFFFCFBA93AA931A93BF
:1002CC000A93AA81BB8112960E944304309759F17C
:1002DC00AA81BB8114960E9443048F01309761F070
:1002EC000230E0E01E0798F0F80131978F01AA81E7
:1002FC00BB811496ED93FC93AA81BB811296ED9170
:10030C00FD913196FE93EE933197AC81A083AA8137
:10031C00BB810E944304FF232AF0ED91FD9131969D
:10032C00FE93EE9306C0AA81BB81EFEFFFEFED9336
:10033C00FC931981088125960895BA93AA93269760
:10034C000E94500410E0AC85BD85E0E0F0E0ED9338
:10035C00FC93EA89FB893196EA8BFB8B3197E4910C
:10036C002E2FE03009F415C1E12FE03039F425329D
:10037C0011F411E002C00E94F2030AC1E130A9F4A9
:10038C00253219F40E94F20302C112E040E000E0B1
:10039C002D3211F401E0FCC02B3211F44BE2F8C009
:1003AC00203211F440E2F4C002C0E23039F450E0E3
:1003BC0013E0203311F40068EBC003C0E33009F004
:1003CC00E7C0203310F02A3308F007C0AAE05A9F88
:1003DC00502DE22FE0535E0FDBC0E22FE33649F4E1
:1003EC000E94F903E889F989A481AA930E94FF036A
:1003FC00CEC0E33741F40E94F9030E9405040E9429
:10040C00AA031E2F0AC0E03761F40E94F9030E9470
:10041C0005040E94B6031E2F086002600F7730E0BF
:10042C0034C0E43611F0E93611F4046002C0E5374B
:10043C0031F4E4E5F0E0EE83FF8315E00CC0E83521
:10044C0011F4086003C0E83709F0A1C0EEE5F0E054
:10045C00EE83FF8314E002FF14C00E94F9030E9494
:10046C000F04AB85AA233AF4EA85FB850E943A0473
:10047C00EA87FB874DE2403011F01F5F01C00B7F14
:10048C0004C00E94F9030E940F0400FD11C015174F
:10049C0078F407FF08C002FF04C00B7F242F115013
:1004AC0001C020E301C020E20E94F2035150EFCFC3
:1004BC00312F01FF17C03030A1F003FF06C0EE81D1
:1004CC00FF812591EE83FF8305C0AE81BF812D9105
:1004DC00AE83BF830E94F203503009F0515031506B
:1004EC00EACF4BC020E3EE81FF810E944704E887EE
:1004FC00F987EE81FF813296EE83FF83E885F985DB
:10050C00AA85BB85AE17BF0750F02F5FA885B985AC
:10051C00EA85FB85EA1BFB0BEA87FB87EFCF2A33C7
:10052C0028F003FF02C0295F01C0295D04FD1AC039
:10053C00213320F4A885B985119709F409C0531704
:10054C0010F000FF01C013C020E207FF0BC020E336
:10055C00006102FF07C00B7F4A930E94FF035030DB
:10056C0009F051500E94F203503009F051503150B3
:10057C00A885B985129708F0B5CF00FF08C0503098
:10058C0031F05150E0E2EA930E94FF03F8CF10E003
:10059C00E0CEAC85BD850E9443040E94570464964E
:1005AC000895FF92F82E26970E9452040E94170479
:1005BC00309719F4EFEFFFEF23C0DE0116960E947F
:1005CC0036048D010E941704EE83FF83E0E0E88778
:1005DC00E987DE011A960E9436040E944304FA93BE
:1005EC00EA931A930A93E3E6F1E0FA93EA93DE01B5
:1005FC001A96A3DE9F01AE81BF81E0E0EC93F90176
:10060C000E9459042A96FF900895AA93EBB3EF70B9
:10061C00AE2FE881E07FEA2BEBBB8DE08A95F1F7FA
:10062C00DA9A8DE08A95F1F7DA988DE08A95F1F7F0
:10063C0089C0AA93A881E9DFE881E295E883A881C3
:10064C00E4DF85E88A95F1F77DC0AA93E881F0E0B4
:10065C00E458FE4FE081A981AE0FEBDFE981E09316
:10066C008001E881E093810122960895A2E00E9426
:10067C001E04ACE0DEDFA1E00E941E04E0E0E0938B
:10068C008101E09380010895AA93A881AA3031F0EA
:10069C00E0918201A0918001AE1760F0E0E0EA9356
:1006AC00A0918101AF5FA0938101CFDFA881AA3017
:1006BC0009F448C0E0918001EF5FE0938001D89A83
:1006CC00A881B7DFD8983EC0BA93AA931A93A98190
:1006DC00BA81ED91A983BA831E2FE03019F0A12FB6
:1006EC00D3DFF5CF188123960895AA93EAB3E06F70
:1006FC00EABBD29AD09AD19ADA98D898D998E8814C
:10070C00E0938201E058E0937E01E881E054E093AD
:10071C007F01A4E1B0E00E942C040E9424040E94FA
:10072C0024040E942404A0E270DF88EC90E001977E
:10073C00F1F7A8E27EDFA4E07CDFA5E87ADFA6E093
:10074C0078DF94DF21960895BA93AA93A991B99171
:10075C00EE27FF276D91662311F03196FBCF08959C
:10076C00BA93AA93AA27BB27E991F9910590002087
:10077C0011F01196FBCFFD0108950E943E040E94DA
:10078C004B0408950A921A92FA926A937A938A9376
:10079C009A93AA93BA93EA93FA93EFB7EA93E1E0A8
:1007AC00F0E0EC15FD050895F20131962F01E8E11A
:1007BC00F0E0E415F5050895F30131963F01ECE303
:1007CC00F0E0E615F7050895F40131964F01ECE3DE
:1007DC00F0E0E815F90508952A93AD85BE85EF85FF
:1007EC00F88909950895E889F9893497E88BF98B8C
:1007FC000895AD85BE85EF85F88909950895A8897A
:10080C00B98914960E944304EE83FF83AE81BF81A5
:10081C000895A889B98914960E944304EA87FB8736
:10082C000895DE011C960E9436040E94430408952C
:10083C000E941F03A3E0B0E00C942C04A0E30E94E0
:10084C000B0388EC90E00197F1F70895109639F0BE
:10085C0080ED97E00197F1F7A8951197C9F70895E6
:10086C000024AF0DB01D0895F195E195F040089569
:10087C006F2F660F660B762F0895ED91FC911197F3
:10088C0008950590F491E02D08957A936A93FA9364
:10089C00EA9308955A934A933A932A931A930A9394
:1008AC0008955D814C813B812A81198108810895CD
:00000001FF
